{
  "_format": "hh-sol-artifact-1",
  "contractName": "CFNFT",
  "sourceName": "contracts/CFNFT.sol",
  "abi": [
    {
      "inputs": [],
      "stateMutability": "nonpayable",
      "type": "constructor"
    },
    {
      "anonymous": false,
      "inputs": [
        {
          "indexed": true,
          "internalType": "address",
          "name": "owner",
          "type": "address"
        },
        {
          "indexed": true,
          "internalType": "address",
          "name": "approved",
          "type": "address"
        },
        {
          "indexed": true,
          "internalType": "uint256",
          "name": "tokenId",
          "type": "uint256"
        }
      ],
      "name": "Approval",
      "type": "event"
    },
    {
      "anonymous": false,
      "inputs": [
        {
          "indexed": true,
          "internalType": "address",
          "name": "owner",
          "type": "address"
        },
        {
          "indexed": true,
          "internalType": "address",
          "name": "operator",
          "type": "address"
        },
        {
          "indexed": false,
          "internalType": "bool",
          "name": "approved",
          "type": "bool"
        }
      ],
      "name": "ApprovalForAll",
      "type": "event"
    },
    {
      "anonymous": false,
      "inputs": [
        {
          "indexed": false,
          "internalType": "uint256",
          "name": "tokenId",
          "type": "uint256"
        },
        {
          "indexed": false,
          "internalType": "address",
          "name": "owner",
          "type": "address"
        }
      ],
      "name": "Minted",
      "type": "event"
    },
    {
      "anonymous": false,
      "inputs": [
        {
          "indexed": true,
          "internalType": "address",
          "name": "previousOwner",
          "type": "address"
        },
        {
          "indexed": true,
          "internalType": "address",
          "name": "newOwner",
          "type": "address"
        }
      ],
      "name": "OwnershipTransferred",
      "type": "event"
    },
    {
      "anonymous": false,
      "inputs": [
        {
          "indexed": false,
          "internalType": "address",
          "name": "account",
          "type": "address"
        }
      ],
      "name": "Paused",
      "type": "event"
    },
    {
      "anonymous": false,
      "inputs": [
        {
          "indexed": true,
          "internalType": "bytes32",
          "name": "role",
          "type": "bytes32"
        },
        {
          "indexed": true,
          "internalType": "bytes32",
          "name": "previousAdminRole",
          "type": "bytes32"
        },
        {
          "indexed": true,
          "internalType": "bytes32",
          "name": "newAdminRole",
          "type": "bytes32"
        }
      ],
      "name": "RoleAdminChanged",
      "type": "event"
    },
    {
      "anonymous": false,
      "inputs": [
        {
          "indexed": true,
          "internalType": "bytes32",
          "name": "role",
          "type": "bytes32"
        },
        {
          "indexed": true,
          "internalType": "address",
          "name": "account",
          "type": "address"
        },
        {
          "indexed": true,
          "internalType": "address",
          "name": "sender",
          "type": "address"
        }
      ],
      "name": "RoleGranted",
      "type": "event"
    },
    {
      "anonymous": false,
      "inputs": [
        {
          "indexed": true,
          "internalType": "bytes32",
          "name": "role",
          "type": "bytes32"
        },
        {
          "indexed": true,
          "internalType": "address",
          "name": "account",
          "type": "address"
        },
        {
          "indexed": true,
          "internalType": "address",
          "name": "sender",
          "type": "address"
        }
      ],
      "name": "RoleRevoked",
      "type": "event"
    },
    {
      "anonymous": false,
      "inputs": [
        {
          "indexed": true,
          "internalType": "address",
          "name": "from",
          "type": "address"
        },
        {
          "indexed": true,
          "internalType": "address",
          "name": "to",
          "type": "address"
        },
        {
          "indexed": true,
          "internalType": "uint256",
          "name": "tokenId",
          "type": "uint256"
        }
      ],
      "name": "Transfer",
      "type": "event"
    },
    {
      "anonymous": false,
      "inputs": [
        {
          "indexed": false,
          "internalType": "address",
          "name": "account",
          "type": "address"
        }
      ],
      "name": "Unpaused",
      "type": "event"
    },
    {
      "inputs": [],
      "name": "DEFAULT_ADMIN_ROLE",
      "outputs": [
        {
          "internalType": "bytes32",
          "name": "",
          "type": "bytes32"
        }
      ],
      "stateMutability": "view",
      "type": "function"
    },
    {
      "inputs": [],
      "name": "MAX_TOKENS",
      "outputs": [
        {
          "internalType": "uint256",
          "name": "",
          "type": "uint256"
        }
      ],
      "stateMutability": "view",
      "type": "function"
    },
    {
      "inputs": [],
      "name": "MINTER_ROLE",
      "outputs": [
        {
          "internalType": "bytes32",
          "name": "",
          "type": "bytes32"
        }
      ],
      "stateMutability": "view",
      "type": "function"
    },
    {
      "inputs": [],
      "name": "PAUSER_ROLE",
      "outputs": [
        {
          "internalType": "bytes32",
          "name": "",
          "type": "bytes32"
        }
      ],
      "stateMutability": "view",
      "type": "function"
    },
    {
      "inputs": [
        {
          "internalType": "address",
          "name": "to",
          "type": "address"
        },
        {
          "internalType": "uint256",
          "name": "tokenId",
          "type": "uint256"
        }
      ],
      "name": "approve",
      "outputs": [],
      "stateMutability": "nonpayable",
      "type": "function"
    },
    {
      "inputs": [
        {
          "internalType": "address",
          "name": "owner",
          "type": "address"
        }
      ],
      "name": "balanceOf",
      "outputs": [
        {
          "internalType": "uint256",
          "name": "",
          "type": "uint256"
        }
      ],
      "stateMutability": "view",
      "type": "function"
    },
    {
      "inputs": [
        {
          "internalType": "uint256",
          "name": "tokenId",
          "type": "uint256"
        }
      ],
      "name": "burn",
      "outputs": [],
      "stateMutability": "nonpayable",
      "type": "function"
    },
    {
      "inputs": [
        {
          "internalType": "uint256",
          "name": "tokenId",
          "type": "uint256"
        }
      ],
      "name": "getApproved",
      "outputs": [
        {
          "internalType": "address",
          "name": "",
          "type": "address"
        }
      ],
      "stateMutability": "view",
      "type": "function"
    },
    {
      "inputs": [
        {
          "internalType": "bytes32",
          "name": "role",
          "type": "bytes32"
        }
      ],
      "name": "getRoleAdmin",
      "outputs": [
        {
          "internalType": "bytes32",
          "name": "",
          "type": "bytes32"
        }
      ],
      "stateMutability": "view",
      "type": "function"
    },
    {
      "inputs": [
        {
          "internalType": "bytes32",
          "name": "role",
          "type": "bytes32"
        },
        {
          "internalType": "uint256",
          "name": "index",
          "type": "uint256"
        }
      ],
      "name": "getRoleMember",
      "outputs": [
        {
          "internalType": "address",
          "name": "",
          "type": "address"
        }
      ],
      "stateMutability": "view",
      "type": "function"
    },
    {
      "inputs": [
        {
          "internalType": "bytes32",
          "name": "role",
          "type": "bytes32"
        }
      ],
      "name": "getRoleMemberCount",
      "outputs": [
        {
          "internalType": "uint256",
          "name": "",
          "type": "uint256"
        }
      ],
      "stateMutability": "view",
      "type": "function"
    },
    {
      "inputs": [
        {
          "internalType": "bytes32",
          "name": "role",
          "type": "bytes32"
        },
        {
          "internalType": "address",
          "name": "account",
          "type": "address"
        }
      ],
      "name": "grantRole",
      "outputs": [],
      "stateMutability": "nonpayable",
      "type": "function"
    },
    {
      "inputs": [
        {
          "internalType": "bytes32",
          "name": "role",
          "type": "bytes32"
        },
        {
          "internalType": "address",
          "name": "account",
          "type": "address"
        }
      ],
      "name": "hasRole",
      "outputs": [
        {
          "internalType": "bool",
          "name": "",
          "type": "bool"
        }
      ],
      "stateMutability": "view",
      "type": "function"
    },
    {
      "inputs": [],
      "name": "hasSaleStarted",
      "outputs": [
        {
          "internalType": "bool",
          "name": "",
          "type": "bool"
        }
      ],
      "stateMutability": "view",
      "type": "function"
    },
    {
      "inputs": [],
      "name": "hasSoldOut",
      "outputs": [
        {
          "internalType": "bool",
          "name": "",
          "type": "bool"
        }
      ],
      "stateMutability": "view",
      "type": "function"
    },
    {
      "inputs": [
        {
          "internalType": "address",
          "name": "_owner",
          "type": "address"
        },
        {
          "internalType": "address",
          "name": "_operator",
          "type": "address"
        }
      ],
      "name": "isApprovedForAll",
      "outputs": [
        {
          "internalType": "bool",
          "name": "isOperator",
          "type": "bool"
        }
      ],
      "stateMutability": "view",
      "type": "function"
    },
    {
      "inputs": [
        {
          "internalType": "address",
          "name": "to",
          "type": "address"
        }
      ],
      "name": "mint",
      "outputs": [],
      "stateMutability": "nonpayable",
      "type": "function"
    },
    {
      "inputs": [
        {
          "internalType": "uint256",
          "name": "quantity",
          "type": "uint256"
        },
        {
          "internalType": "address",
          "name": "receiver",
          "type": "address"
        }
      ],
      "name": "mintToken",
      "outputs": [],
      "stateMutability": "payable",
      "type": "function"
    },
    {
      "inputs": [],
      "name": "name",
      "outputs": [
        {
          "internalType": "string",
          "name": "",
          "type": "string"
        }
      ],
      "stateMutability": "view",
      "type": "function"
    },
    {
      "inputs": [],
      "name": "owner",
      "outputs": [
        {
          "internalType": "address",
          "name": "",
          "type": "address"
        }
      ],
      "stateMutability": "view",
      "type": "function"
    },
    {
      "inputs": [
        {
          "internalType": "uint256",
          "name": "tokenId",
          "type": "uint256"
        }
      ],
      "name": "ownerOf",
      "outputs": [
        {
          "internalType": "address",
          "name": "",
          "type": "address"
        }
      ],
      "stateMutability": "view",
      "type": "function"
    },
    {
      "inputs": [],
      "name": "pause",
      "outputs": [],
      "stateMutability": "nonpayable",
      "type": "function"
    },
    {
      "inputs": [],
      "name": "pauseSale",
      "outputs": [],
      "stateMutability": "nonpayable",
      "type": "function"
    },
    {
      "inputs": [],
      "name": "paused",
      "outputs": [
        {
          "internalType": "bool",
          "name": "",
          "type": "bool"
        }
      ],
      "stateMutability": "view",
      "type": "function"
    },
    {
      "inputs": [],
      "name": "renounceOwnership",
      "outputs": [],
      "stateMutability": "nonpayable",
      "type": "function"
    },
    {
      "inputs": [
        {
          "internalType": "bytes32",
          "name": "role",
          "type": "bytes32"
        },
        {
          "internalType": "address",
          "name": "account",
          "type": "address"
        }
      ],
      "name": "renounceRole",
      "outputs": [],
      "stateMutability": "nonpayable",
      "type": "function"
    },
    {
      "inputs": [
        {
          "internalType": "bytes32",
          "name": "role",
          "type": "bytes32"
        },
        {
          "internalType": "address",
          "name": "account",
          "type": "address"
        }
      ],
      "name": "revokeRole",
      "outputs": [],
      "stateMutability": "nonpayable",
      "type": "function"
    },
    {
      "inputs": [
        {
          "internalType": "address",
          "name": "from",
          "type": "address"
        },
        {
          "internalType": "address",
          "name": "to",
          "type": "address"
        },
        {
          "internalType": "uint256",
          "name": "tokenId",
          "type": "uint256"
        }
      ],
      "name": "safeTransferFrom",
      "outputs": [],
      "stateMutability": "nonpayable",
      "type": "function"
    },
    {
      "inputs": [
        {
          "internalType": "address",
          "name": "from",
          "type": "address"
        },
        {
          "internalType": "address",
          "name": "to",
          "type": "address"
        },
        {
          "internalType": "uint256",
          "name": "tokenId",
          "type": "uint256"
        },
        {
          "internalType": "bytes",
          "name": "_data",
          "type": "bytes"
        }
      ],
      "name": "safeTransferFrom",
      "outputs": [],
      "stateMutability": "nonpayable",
      "type": "function"
    },
    {
      "inputs": [
        {
          "internalType": "address",
          "name": "operator",
          "type": "address"
        },
        {
          "internalType": "bool",
          "name": "approved",
          "type": "bool"
        }
      ],
      "name": "setApprovalForAll",
      "outputs": [],
      "stateMutability": "nonpayable",
      "type": "function"
    },
    {
      "inputs": [],
      "name": "startSale",
      "outputs": [],
      "stateMutability": "nonpayable",
      "type": "function"
    },
    {
      "inputs": [
        {
          "internalType": "bytes4",
          "name": "interfaceId",
          "type": "bytes4"
        }
      ],
      "name": "supportsInterface",
      "outputs": [
        {
          "internalType": "bool",
          "name": "",
          "type": "bool"
        }
      ],
      "stateMutability": "view",
      "type": "function"
    },
    {
      "inputs": [],
      "name": "symbol",
      "outputs": [
        {
          "internalType": "string",
          "name": "",
          "type": "string"
        }
      ],
      "stateMutability": "view",
      "type": "function"
    },
    {
      "inputs": [
        {
          "internalType": "uint256",
          "name": "index",
          "type": "uint256"
        }
      ],
      "name": "tokenByIndex",
      "outputs": [
        {
          "internalType": "uint256",
          "name": "",
          "type": "uint256"
        }
      ],
      "stateMutability": "view",
      "type": "function"
    },
    {
      "inputs": [
        {
          "internalType": "uint256",
          "name": "tokenId",
          "type": "uint256"
        }
      ],
      "name": "tokenExists",
      "outputs": [
        {
          "internalType": "bool",
          "name": "",
          "type": "bool"
        }
      ],
      "stateMutability": "view",
      "type": "function"
    },
    {
      "inputs": [
        {
          "internalType": "address",
          "name": "owner",
          "type": "address"
        },
        {
          "internalType": "uint256",
          "name": "index",
          "type": "uint256"
        }
      ],
      "name": "tokenOfOwnerByIndex",
      "outputs": [
        {
          "internalType": "uint256",
          "name": "",
          "type": "uint256"
        }
      ],
      "stateMutability": "view",
      "type": "function"
    },
    {
      "inputs": [
        {
          "internalType": "uint256",
          "name": "tokenId",
          "type": "uint256"
        }
      ],
      "name": "tokenURI",
      "outputs": [
        {
          "internalType": "string",
          "name": "",
          "type": "string"
        }
      ],
      "stateMutability": "view",
      "type": "function"
    },
    {
      "inputs": [],
      "name": "totalSupply",
      "outputs": [
        {
          "internalType": "uint256",
          "name": "",
          "type": "uint256"
        }
      ],
      "stateMutability": "view",
      "type": "function"
    },
    {
      "inputs": [
        {
          "internalType": "address",
          "name": "from",
          "type": "address"
        },
        {
          "internalType": "address",
          "name": "to",
          "type": "address"
        },
        {
          "internalType": "uint256",
          "name": "tokenId",
          "type": "uint256"
        }
      ],
      "name": "transferFrom",
      "outputs": [],
      "stateMutability": "nonpayable",
      "type": "function"
    },
    {
      "inputs": [
        {
          "internalType": "address",
          "name": "newOwner",
          "type": "address"
        }
      ],
      "name": "transferOwnership",
      "outputs": [],
      "stateMutability": "nonpayable",
      "type": "function"
    },
    {
      "inputs": [],
      "name": "unpause",
      "outputs": [],
      "stateMutability": "nonpayable",
      "type": "function"
    }
  ],
  "bytecode": "0x60806040526000600f60146101000a81548160ff0219169083151502179055503480156200002c57600080fd5b506040518060400160405280600581526020017f43464e46540000000000000000000000000000000000000000000000000000008152506040518060400160405280600581526020017f43464e465400000000000000000000000000000000000000000000000000000081525060405180606001604052806025815260200162005f026025913982828160029080519060200190620000cd9291906200060f565b508060039080519060200190620000e69291906200060f565b5050506000600c60006101000a81548160ff02191690831515021790555080600e90805190602001906200011c9291906200060f565b50620001416000801b62000135620001ec60201b60201c565b6200020860201b60201c565b620001827f9f2df0fed2c77648de5860a4cc508cd0818c85b8b8a1ab4ceeef8d981c8956a662000176620001ec60201b60201c565b6200020860201b60201c565b620001c37f65d7a28e3265b37a6474929f336521b332c1681b933f6cb9f3376673440d862a620001b7620001ec60201b60201c565b6200020860201b60201c565b505050620001e6620001da620001ec60201b60201c565b6200025060201b60201c565b62000724565b6000620002036200031660201b62001b8d1760201c565b905090565b6200021f8282620003c960201b62001c3e1760201c565b6200024b8160016000858152602001908152602001600020620003df60201b62001c4c1790919060201c565b505050565b6000600f60009054906101000a900473ffffffffffffffffffffffffffffffffffffffff16905081600f60006101000a81548173ffffffffffffffffffffffffffffffffffffffff021916908373ffffffffffffffffffffffffffffffffffffffff1602179055508173ffffffffffffffffffffffffffffffffffffffff168173ffffffffffffffffffffffffffffffffffffffff167f8be0079c531659141344cd1fd0a4f28419497f9722a3daafe3b4186f6b6457e060405160405180910390a35050565b60003073ffffffffffffffffffffffffffffffffffffffff163373ffffffffffffffffffffffffffffffffffffffff161415620003c257600080368080601f016020809104026020016040519081016040528093929190818152602001838380828437600081840152601f19601f820116905080830192505050505050509050600080369050905073ffffffffffffffffffffffffffffffffffffffff818301511692505050620003c6565b3390505b90565b620003db82826200041760201b60201c565b5050565b60006200040f836000018373ffffffffffffffffffffffffffffffffffffffff1660001b6200050860201b60201c565b905092915050565b6200042982826200058260201b60201c565b6200050457600160008084815260200190815260200160002060000160008373ffffffffffffffffffffffffffffffffffffffff1673ffffffffffffffffffffffffffffffffffffffff16815260200190815260200160002060006101000a81548160ff021916908315150217905550620004a9620001ec60201b60201c565b73ffffffffffffffffffffffffffffffffffffffff168173ffffffffffffffffffffffffffffffffffffffff16837f2f8788117e7eff1d82e926ec794901d17c78024a50270940304540a733656f0d60405160405180910390a45b5050565b60006200051c8383620005ec60201b60201c565b620005775782600001829080600181540180825580915050600190039060005260206000200160009091909190915055826000018054905083600101600084815260200190815260200160002081905550600190506200057c565b600090505b92915050565b600080600084815260200190815260200160002060000160008373ffffffffffffffffffffffffffffffffffffffff1673ffffffffffffffffffffffffffffffffffffffff16815260200190815260200160002060009054906101000a900460ff16905092915050565b600080836001016000848152602001908152602001600020541415905092915050565b8280546200061d90620006bf565b90600052602060002090601f0160209004810192826200064157600085556200068d565b82601f106200065c57805160ff19168380011785556200068d565b828001600101855582156200068d579182015b828111156200068c5782518255916020019190600101906200066f565b5b5090506200069c9190620006a0565b5090565b5b80821115620006bb576000816000905550600101620006a1565b5090565b60006002820490506001821680620006d857607f821691505b60208210811415620006ef57620006ee620006f5565b5b50919050565b7f4e487b7100000000000000000000000000000000000000000000000000000000600052602260045260246000fd5b6157ce80620007346000396000f3fe6080604052600436106102455760003560e01c80636a62784211610139578063a22cb465116100b6578063d53913931161007a578063d53913931461087e578063d547741f146108a9578063e63ab1e9146108d2578063e985e9c5146108fd578063f2fde38b1461093a578063f47c84c51461096357610245565b8063a22cb4651461079b578063b66a0e5d146107c4578063b88d4fde146107db578063c87b56dd14610804578063ca15c8731461084157610245565b80639010d07c116100fd5780639010d07c146106af57806391d14854146106ec57806395d89b4114610729578063a140ae2314610754578063a217fddf1461077057610245565b80636a627842146105f057806370a0823114610619578063715018a6146106565780638456cb591461066d5780638da5cb5b1461068457610245565b80632f2ff15d116101c757806342966c681161018b57806342966c681461050b5780634f6ccce71461053457806355367ba9146105715780635c975abb146105885780636352211e146105b357610245565b80632f2ff15d1461043c5780632f745c591461046557806336568abe146104a25780633f4ba83a146104cb57806342842e0e146104e257610245565b8063095ea7b31161020e578063095ea7b31461035757806318160ddd146103805780631c8b232d146103ab57806323b872dd146103d6578063248a9ca3146103ff57610245565b8062923f9e1461024a57806301ffc9a71461028757806303824f76146102c457806306fdde03146102ef578063081812fc1461031a575b600080fd5b34801561025657600080fd5b50610271600480360381019061026c9190613f9a565b61098e565b60405161027e9190614626565b60405180910390f35b34801561029357600080fd5b506102ae60048036038101906102a99190613f48565b6109a0565b6040516102bb9190614626565b60405180910390f35b3480156102d057600080fd5b506102d96109b2565b6040516102e69190614626565b60405180910390f35b3480156102fb57600080fd5b506103046109d5565b604051610311919061465c565b60405180910390f35b34801561032657600080fd5b50610341600480360381019061033c9190613f9a565b610a67565b60405161034e91906145bf565b60405180910390f35b34801561036357600080fd5b5061037e60048036038101906103799190613e6b565b610aec565b005b34801561038c57600080fd5b50610395610c04565b6040516103a29190614a5e565b60405180910390f35b3480156103b757600080fd5b506103c0610c11565b6040516103cd9190614626565b60405180910390f35b3480156103e257600080fd5b506103fd60048036038101906103f89190613d65565b610c24565b005b34801561040b57600080fd5b5061042660048036038101906104219190613ea7565b610c84565b6040516104339190614641565b60405180910390f35b34801561044857600080fd5b50610463600480360381019061045e9190613ed0565b610ca3565b005b34801561047157600080fd5b5061048c60048036038101906104879190613e6b565b610cd7565b6040516104999190614a5e565b60405180910390f35b3480156104ae57600080fd5b506104c960048036038101906104c49190613ed0565b610d7c565b005b3480156104d757600080fd5b506104e0610db0565b005b3480156104ee57600080fd5b5061050960048036038101906105049190613d65565b610e2a565b005b34801561051757600080fd5b50610532600480360381019061052d9190613f9a565b610e4a565b005b34801561054057600080fd5b5061055b60048036038101906105569190613f9a565b610ea6565b6040516105689190614a5e565b60405180910390f35b34801561057d57600080fd5b50610586610f3d565b005b34801561059457600080fd5b5061059d610fd6565b6040516105aa9190614626565b60405180910390f35b3480156105bf57600080fd5b506105da60048036038101906105d59190613f9a565b610fed565b6040516105e791906145bf565b60405180910390f35b3480156105fc57600080fd5b5061061760048036038101906106129190613d00565b61109f565b005b34801561062557600080fd5b50610640600480360381019061063b9190613d00565b61112f565b60405161064d9190614a5e565b60405180910390f35b34801561066257600080fd5b5061066b6111e7565b005b34801561067957600080fd5b5061068261126f565b005b34801561069057600080fd5b506106996112e9565b6040516106a691906145bf565b60405180910390f35b3480156106bb57600080fd5b506106d660048036038101906106d19190613f0c565b611313565b6040516106e391906145bf565b60405180910390f35b3480156106f857600080fd5b50610713600480360381019061070e9190613ed0565b611342565b6040516107209190614626565b60405180910390f35b34801561073557600080fd5b5061073e6113ac565b60405161074b919061465c565b60405180910390f35b61076e60048036038101906107699190613fc3565b61143e565b005b34801561077c57600080fd5b5061078561165f565b6040516107929190614641565b60405180910390f35b3480156107a757600080fd5b506107c260048036038101906107bd9190613e2f565b611666565b005b3480156107d057600080fd5b506107d96117e7565b005b3480156107e757600080fd5b5061080260048036038101906107fd9190613db4565b611880565b005b34801561081057600080fd5b5061082b60048036038101906108269190613f9a565b6118e2565b604051610838919061465c565b60405180910390f35b34801561084d57600080fd5b5061086860048036038101906108639190613ea7565b611989565b6040516108759190614a5e565b60405180910390f35b34801561088a57600080fd5b506108936119ad565b6040516108a09190614641565b60405180910390f35b3480156108b557600080fd5b506108d060048036038101906108cb9190613ed0565b6119d1565b005b3480156108de57600080fd5b506108e7611a05565b6040516108f49190614641565b60405180910390f35b34801561090957600080fd5b50610924600480360381019061091f9190613d29565b611a29565b6040516109319190614626565b60405180910390f35b34801561094657600080fd5b50610961600480360381019061095c9190613d00565b611a8f565b005b34801561096f57600080fd5b50610978611b87565b6040516109859190614a5e565b60405180910390f35b600061099982611c7c565b9050919050565b60006109ab82611ce8565b9050919050565b60006108006109bf610c04565b106109cd57600190506109d2565b600090505b90565b6060600280546109e490614d3a565b80601f0160208091040260200160405190810160405280929190818152602001828054610a1090614d3a565b8015610a5d5780601f10610a3257610100808354040283529160200191610a5d565b820191906000526020600020905b815481529060010190602001808311610a4057829003601f168201915b5050505050905090565b6000610a7282611c7c565b610ab1576040517f08c379a0000000000000000000000000000000000000000000000000000000008152600401610aa8906148de565b60405180910390fd5b6006600083815260200190815260200160002060009054906101000a900473ffffffffffffffffffffffffffffffffffffffff169050919050565b6000610af782610fed565b90508073ffffffffffffffffffffffffffffffffffffffff168373ffffffffffffffffffffffffffffffffffffffff161415610b68576040517f08c379a0000000000000000000000000000000000000000000000000000000008152600401610b5f9061497e565b60405180910390fd5b8073ffffffffffffffffffffffffffffffffffffffff16610b87611d62565b73ffffffffffffffffffffffffffffffffffffffff161480610bb65750610bb581610bb0611d62565b611a29565b5b610bf5576040517f08c379a0000000000000000000000000000000000000000000000000000000008152600401610bec9061483e565b60405180910390fd5b610bff8383611d71565b505050565b6000600a80549050905090565b600f60149054906101000a900460ff1681565b610c35610c2f611d62565b82611e2a565b610c74576040517f08c379a0000000000000000000000000000000000000000000000000000000008152600401610c6b9061499e565b60405180910390fd5b610c7f838383611f08565b505050565b6000806000838152602001908152602001600020600101549050919050565b610cad8282612164565b610cd28160016000858152602001908152602001600020611c4c90919063ffffffff16565b505050565b6000610ce28361112f565b8210610d23576040517f08c379a0000000000000000000000000000000000000000000000000000000008152600401610d1a906146fe565b60405180910390fd5b600860008473ffffffffffffffffffffffffffffffffffffffff1673ffffffffffffffffffffffffffffffffffffffff168152602001908152602001600020600083815260200190815260200160002054905092915050565b610d86828261218d565b610dab816001600085815260200190815260200160002061221090919063ffffffff16565b505050565b610de17f65d7a28e3265b37a6474929f336521b332c1681b933f6cb9f3376673440d862a610ddc611d62565b611342565b610e20576040517f08c379a0000000000000000000000000000000000000000000000000000000008152600401610e1790614a1e565b60405180910390fd5b610e28612240565b565b610e4583838360405180602001604052806000815250611880565b505050565b610e5b610e55611d62565b82611e2a565b610e9a576040517f08c379a0000000000000000000000000000000000000000000000000000000008152600401610e91906149fe565b60405180910390fd5b610ea3816122e2565b50565b6000610eb0610c04565b8210610ef1576040517f08c379a0000000000000000000000000000000000000000000000000000000008152600401610ee8906149be565b60405180910390fd5b600a8281548110610f2b577f4e487b7100000000000000000000000000000000000000000000000000000000600052603260045260246000fd5b90600052602060002001549050919050565b610f45611d62565b73ffffffffffffffffffffffffffffffffffffffff16610f636112e9565b73ffffffffffffffffffffffffffffffffffffffff1614610fb9576040517f08c379a0000000000000000000000000000000000000000000000000000000008152600401610fb0906148fe565b60405180910390fd5b6000600f60146101000a81548160ff021916908315150217905550565b6000600c60009054906101000a900460ff16905090565b6000806004600084815260200190815260200160002060009054906101000a900473ffffffffffffffffffffffffffffffffffffffff169050600073ffffffffffffffffffffffffffffffffffffffff168173ffffffffffffffffffffffffffffffffffffffff161415611096576040517f08c379a000000000000000000000000000000000000000000000000000000000815260040161108d9061487e565b60405180910390fd5b80915050919050565b6110d07f9f2df0fed2c77648de5860a4cc508cd0818c85b8b8a1ab4ceeef8d981c8956a66110cb611d62565b611342565b61110f576040517f08c379a0000000000000000000000000000000000000000000000000000000008152600401611106906149de565b60405180910390fd5b6111228161111d600d6123f3565b612401565b61112c600d6125cf565b50565b60008073ffffffffffffffffffffffffffffffffffffffff168273ffffffffffffffffffffffffffffffffffffffff1614156111a0576040517f08c379a00000000000000000000000000000000000000000000000000000000081526004016111979061485e565b60405180910390fd5b600560008373ffffffffffffffffffffffffffffffffffffffff1673ffffffffffffffffffffffffffffffffffffffff168152602001908152602001600020549050919050565b6111ef611d62565b73ffffffffffffffffffffffffffffffffffffffff1661120d6112e9565b73ffffffffffffffffffffffffffffffffffffffff1614611263576040517f08c379a000000000000000000000000000000000000000000000000000000000815260040161125a906148fe565b60405180910390fd5b61126d60006125e5565b565b6112a07f65d7a28e3265b37a6474929f336521b332c1681b933f6cb9f3376673440d862a61129b611d62565b611342565b6112df576040517f08c379a00000000000000000000000000000000000000000000000000000000081526004016112d69061477e565b60405180910390fd5b6112e76126ab565b565b6000600f60009054906101000a900473ffffffffffffffffffffffffffffffffffffffff16905090565b600061133a826001600086815260200190815260200160002061274e90919063ffffffff16565b905092915050565b600080600084815260200190815260200160002060000160008373ffffffffffffffffffffffffffffffffffffffff1673ffffffffffffffffffffffffffffffffffffffff16815260200190815260200160002060009054906101000a900460ff16905092915050565b6060600380546113bb90614d3a565b80601f01602080910402602001604051908101604052809291908181526020018280546113e790614d3a565b80156114345780601f1061140957610100808354040283529160200191611434565b820191906000526020600020905b81548152906001019060200180831161141757829003601f168201915b5050505050905090565b600f60149054906101000a900460ff168061148b575061145c6112e9565b73ffffffffffffffffffffffffffffffffffffffff163373ffffffffffffffffffffffffffffffffffffffff16145b6114ca576040517f08c379a00000000000000000000000000000000000000000000000000000000081526004016114c1906146de565b60405180910390fd5b6000821161150d576040517f08c379a00000000000000000000000000000000000000000000000000000000081526004016115049061489e565b60405180910390fd5b6003821115611551576040517f08c379a00000000000000000000000000000000000000000000000000000000081526004016115489061495e565b60405180910390fd5b61080061156e83611560610c04565b61276890919063ffffffff16565b1115806115ad575061157e6112e9565b73ffffffffffffffffffffffffffffffffffffffff163373ffffffffffffffffffffffffffffffffffffffff16145b6115ec576040517f08c379a00000000000000000000000000000000000000000000000000000000081526004016115e3906147fe565b60405180910390fd5b60005b8281101561165a576000611601610c04565b905061160d838261277e565b7fb9203d657e9c0ec8274c818292ab0f58b04e1970050716891770eb1bab5d655e818460405161163e929190614a79565b60405180910390a150808061165290614d9d565b9150506115ef565b505050565b6000801b81565b61166e611d62565b73ffffffffffffffffffffffffffffffffffffffff168273ffffffffffffffffffffffffffffffffffffffff1614156116dc576040517f08c379a00000000000000000000000000000000000000000000000000000000081526004016116d3906147be565b60405180910390fd5b80600760006116e9611d62565b73ffffffffffffffffffffffffffffffffffffffff1673ffffffffffffffffffffffffffffffffffffffff16815260200190815260200160002060008473ffffffffffffffffffffffffffffffffffffffff1673ffffffffffffffffffffffffffffffffffffffff16815260200190815260200160002060006101000a81548160ff0219169083151502179055508173ffffffffffffffffffffffffffffffffffffffff16611796611d62565b73ffffffffffffffffffffffffffffffffffffffff167f17307eab39ab6107e8899845ad3d59bd9653f200f220920489ca2b5937696c31836040516117db9190614626565b60405180910390a35050565b6117ef611d62565b73ffffffffffffffffffffffffffffffffffffffff1661180d6112e9565b73ffffffffffffffffffffffffffffffffffffffff1614611863576040517f08c379a000000000000000000000000000000000000000000000000000000000815260040161185a906148fe565b60405180910390fd5b6001600f60146101000a81548160ff021916908315150217905550565b61189161188b611d62565b83611e2a565b6118d0576040517f08c379a00000000000000000000000000000000000000000000000000000000081526004016118c79061499e565b60405180910390fd5b6118dc8484848461279c565b50505050565b60606118ed82611c7c565b61192c576040517f08c379a00000000000000000000000000000000000000000000000000000000081526004016119239061493e565b60405180910390fd5b60006119366127f8565b905060008151116119565760405180602001604052806000815250611981565b806119608461288a565b604051602001611971929190614561565b6040516020818303038152906040525b915050919050565b60006119a660016000848152602001908152602001600020612a37565b9050919050565b7f9f2df0fed2c77648de5860a4cc508cd0818c85b8b8a1ab4ceeef8d981c8956a681565b6119db8282612a4c565b611a00816001600085815260200190815260200160002061221090919063ffffffff16565b505050565b7f65d7a28e3265b37a6474929f336521b332c1681b933f6cb9f3376673440d862a81565b60007358807bad0b376efc12f5ad86aac70e78ed67deae73ffffffffffffffffffffffffffffffffffffffff168273ffffffffffffffffffffffffffffffffffffffff161415611a7c5760019050611a89565b611a868383612a75565b90505b92915050565b611a97611d62565b73ffffffffffffffffffffffffffffffffffffffff16611ab56112e9565b73ffffffffffffffffffffffffffffffffffffffff1614611b0b576040517f08c379a0000000000000000000000000000000000000000000000000000000008152600401611b02906148fe565b60405180910390fd5b600073ffffffffffffffffffffffffffffffffffffffff168173ffffffffffffffffffffffffffffffffffffffff161415611b7b576040517f08c379a0000000000000000000000000000000000000000000000000000000008152600401611b729061473e565b60405180910390fd5b611b84816125e5565b50565b61080081565b60003073ffffffffffffffffffffffffffffffffffffffff163373ffffffffffffffffffffffffffffffffffffffff161415611c3757600080368080601f016020809104026020016040519081016040528093929190818152602001838380828437600081840152601f19601f820116905080830192505050505050509050600080369050905073ffffffffffffffffffffffffffffffffffffffff818301511692505050611c3b565b3390505b90565b611c488282612b09565b5050565b6000611c74836000018373ffffffffffffffffffffffffffffffffffffffff1660001b612be9565b905092915050565b60008073ffffffffffffffffffffffffffffffffffffffff166004600084815260200190815260200160002060009054906101000a900473ffffffffffffffffffffffffffffffffffffffff1673ffffffffffffffffffffffffffffffffffffffff1614159050919050565b60007f780e9d63000000000000000000000000000000000000000000000000000000007bffffffffffffffffffffffffffffffffffffffffffffffffffffffff1916827bffffffffffffffffffffffffffffffffffffffffffffffffffffffff19161480611d5b5750611d5a82612c59565b5b9050919050565b6000611d6c611b8d565b905090565b816006600083815260200190815260200160002060006101000a81548173ffffffffffffffffffffffffffffffffffffffff021916908373ffffffffffffffffffffffffffffffffffffffff160217905550808273ffffffffffffffffffffffffffffffffffffffff16611de483610fed565b73ffffffffffffffffffffffffffffffffffffffff167f8c5be1e5ebec7d5bd14f71427d1e84f3dd0314c0f7b2291e5b200ac8c7c3b92560405160405180910390a45050565b6000611e3582611c7c565b611e74576040517f08c379a0000000000000000000000000000000000000000000000000000000008152600401611e6b906147de565b60405180910390fd5b6000611e7f83610fed565b90508073ffffffffffffffffffffffffffffffffffffffff168473ffffffffffffffffffffffffffffffffffffffff161480611eee57508373ffffffffffffffffffffffffffffffffffffffff16611ed684610a67565b73ffffffffffffffffffffffffffffffffffffffff16145b80611eff5750611efe8185611a29565b5b91505092915050565b8273ffffffffffffffffffffffffffffffffffffffff16611f2882610fed565b73ffffffffffffffffffffffffffffffffffffffff1614611f7e576040517f08c379a0000000000000000000000000000000000000000000000000000000008152600401611f759061491e565b60405180910390fd5b600073ffffffffffffffffffffffffffffffffffffffff168273ffffffffffffffffffffffffffffffffffffffff161415611fee576040517f08c379a0000000000000000000000000000000000000000000000000000000008152600401611fe59061479e565b60405180910390fd5b611ff9838383612d3b565b612004600082611d71565b6001600560008573ffffffffffffffffffffffffffffffffffffffff1673ffffffffffffffffffffffffffffffffffffffff16815260200190815260200160002060008282546120549190614c1c565b925050819055506001600560008473ffffffffffffffffffffffffffffffffffffffff1673ffffffffffffffffffffffffffffffffffffffff16815260200190815260200160002060008282546120ab9190614b3b565b92505081905550816004600083815260200190815260200160002060006101000a81548173ffffffffffffffffffffffffffffffffffffffff021916908373ffffffffffffffffffffffffffffffffffffffff160217905550808273ffffffffffffffffffffffffffffffffffffffff168473ffffffffffffffffffffffffffffffffffffffff167fddf252ad1be2c89b69c2b068fc378daa952ba7f163c4a11628f55a4df523b3ef60405160405180910390a4505050565b61216d82610c84565b61217e81612179611d62565b612d4b565b6121888383612b09565b505050565b612195611d62565b73ffffffffffffffffffffffffffffffffffffffff168173ffffffffffffffffffffffffffffffffffffffff1614612202576040517f08c379a00000000000000000000000000000000000000000000000000000000081526004016121f990614a3e565b60405180910390fd5b61220c8282612de8565b5050565b6000612238836000018373ffffffffffffffffffffffffffffffffffffffff1660001b612ec9565b905092915050565b612248610fd6565b612287576040517f08c379a000000000000000000000000000000000000000000000000000000000815260040161227e906146be565b60405180910390fd5b6000600c60006101000a81548160ff0219169083151502179055507f5db9ee0a495bf2e6ff9c91a7834c1ba4fdd244a5e8aa4e537bd38aeae4b073aa6122cb611d62565b6040516122d891906145bf565b60405180910390a1565b60006122ed82610fed565b90506122fb81600084612d3b565b612306600083611d71565b6001600560008373ffffffffffffffffffffffffffffffffffffffff1673ffffffffffffffffffffffffffffffffffffffff16815260200190815260200160002060008282546123569190614c1c565b925050819055506004600083815260200190815260200160002060006101000a81549073ffffffffffffffffffffffffffffffffffffffff021916905581600073ffffffffffffffffffffffffffffffffffffffff168273ffffffffffffffffffffffffffffffffffffffff167fddf252ad1be2c89b69c2b068fc378daa952ba7f163c4a11628f55a4df523b3ef60405160405180910390a45050565b600081600001549050919050565b600073ffffffffffffffffffffffffffffffffffffffff168273ffffffffffffffffffffffffffffffffffffffff161415612471576040517f08c379a0000000000000000000000000000000000000000000000000000000008152600401612468906148be565b60405180910390fd5b61247a81611c7c565b156124ba576040517f08c379a00000000000000000000000000000000000000000000000000000000081526004016124b19061475e565b60405180910390fd5b6124c660008383612d3b565b6001600560008473ffffffffffffffffffffffffffffffffffffffff1673ffffffffffffffffffffffffffffffffffffffff16815260200190815260200160002060008282546125169190614b3b565b92505081905550816004600083815260200190815260200160002060006101000a81548173ffffffffffffffffffffffffffffffffffffffff021916908373ffffffffffffffffffffffffffffffffffffffff160217905550808273ffffffffffffffffffffffffffffffffffffffff16600073ffffffffffffffffffffffffffffffffffffffff167fddf252ad1be2c89b69c2b068fc378daa952ba7f163c4a11628f55a4df523b3ef60405160405180910390a45050565b6001816000016000828254019250508190555050565b6000600f60009054906101000a900473ffffffffffffffffffffffffffffffffffffffff16905081600f60006101000a81548173ffffffffffffffffffffffffffffffffffffffff021916908373ffffffffffffffffffffffffffffffffffffffff1602179055508173ffffffffffffffffffffffffffffffffffffffff168173ffffffffffffffffffffffffffffffffffffffff167f8be0079c531659141344cd1fd0a4f28419497f9722a3daafe3b4186f6b6457e060405160405180910390a35050565b6126b3610fd6565b156126f3576040517f08c379a00000000000000000000000000000000000000000000000000000000081526004016126ea9061481e565b60405180910390fd5b6001600c60006101000a81548160ff0219169083151502179055507f62e78cea01bee320cd4e420270b5ea74000d11b0c9f74754ebdbfc544b05a258612737611d62565b60405161274491906145bf565b60405180910390a1565b600061275d836000018361304f565b60001c905092915050565b600081836127769190614b3b565b905092915050565b6127988282604051806020016040528060008152506130a0565b5050565b6127a7848484611f08565b6127b3848484846130fb565b6127f2576040517f08c379a00000000000000000000000000000000000000000000000000000000081526004016127e99061471e565b60405180910390fd5b50505050565b6060600e805461280790614d3a565b80601f016020809104026020016040519081016040528092919081815260200182805461283390614d3a565b80156128805780601f1061285557610100808354040283529160200191612880565b820191906000526020600020905b81548152906001019060200180831161286357829003601f168201915b5050505050905090565b606060008214156128d2576040518060400160405280600181526020017f30000000000000000000000000000000000000000000000000000000000000008152509050612a32565b600082905060005b600082146129045780806128ed90614d9d565b915050600a826128fd9190614b91565b91506128da565b60008167ffffffffffffffff811115612946577f4e487b7100000000000000000000000000000000000000000000000000000000600052604160045260246000fd5b6040519080825280601f01601f1916602001820160405280156129785781602001600182028036833780820191505090505b5090505b60008514612a2b576001826129919190614c1c565b9150600a856129a09190614de6565b60306129ac9190614b3b565b60f81b8183815181106129e8577f4e487b7100000000000000000000000000000000000000000000000000000000600052603260045260246000fd5b60200101907effffffffffffffffffffffffffffffffffffffffffffffffffffffffffffff1916908160001a905350600a85612a249190614b91565b945061297c565b8093505050505b919050565b6000612a4582600001613292565b9050919050565b612a5582610c84565b612a6681612a61611d62565b612d4b565b612a708383612de8565b505050565b6000600760008473ffffffffffffffffffffffffffffffffffffffff1673ffffffffffffffffffffffffffffffffffffffff16815260200190815260200160002060008373ffffffffffffffffffffffffffffffffffffffff1673ffffffffffffffffffffffffffffffffffffffff16815260200190815260200160002060009054906101000a900460ff16905092915050565b612b138282611342565b612be557600160008084815260200190815260200160002060000160008373ffffffffffffffffffffffffffffffffffffffff1673ffffffffffffffffffffffffffffffffffffffff16815260200190815260200160002060006101000a81548160ff021916908315150217905550612b8a611d62565b73ffffffffffffffffffffffffffffffffffffffff168173ffffffffffffffffffffffffffffffffffffffff16837f2f8788117e7eff1d82e926ec794901d17c78024a50270940304540a733656f0d60405160405180910390a45b5050565b6000612bf583836132a3565b612c4e578260000182908060018154018082558091505060019003906000526020600020016000909190919091505582600001805490508360010160008481526020019081526020016000208190555060019050612c53565b600090505b92915050565b60007f80ac58cd000000000000000000000000000000000000000000000000000000007bffffffffffffffffffffffffffffffffffffffffffffffffffffffff1916827bffffffffffffffffffffffffffffffffffffffffffffffffffffffff19161480612d2457507f5b5e139f000000000000000000000000000000000000000000000000000000007bffffffffffffffffffffffffffffffffffffffffffffffffffffffff1916827bffffffffffffffffffffffffffffffffffffffffffffffffffffffff1916145b80612d345750612d33826132c6565b5b9050919050565b612d46838383613340565b505050565b612d558282611342565b612de457612d7a8173ffffffffffffffffffffffffffffffffffffffff166014613398565b612d888360001c6020613398565b604051602001612d99929190614585565b6040516020818303038152906040526040517f08c379a0000000000000000000000000000000000000000000000000000000008152600401612ddb919061465c565b60405180910390fd5b5050565b612df28282611342565b15612ec557600080600084815260200190815260200160002060000160008373ffffffffffffffffffffffffffffffffffffffff1673ffffffffffffffffffffffffffffffffffffffff16815260200190815260200160002060006101000a81548160ff021916908315150217905550612e6a611d62565b73ffffffffffffffffffffffffffffffffffffffff168173ffffffffffffffffffffffffffffffffffffffff16837ff6391f5c32d9c69d2a47ea670b442974b53935d1edc7fd64eb21e047a839171b60405160405180910390a45b5050565b60008083600101600084815260200190815260200160002054905060008114613043576000600182612efb9190614c1c565b9050600060018660000180549050612f139190614c1c565b9050818114612fce576000866000018281548110612f5a577f4e487b7100000000000000000000000000000000000000000000000000000000600052603260045260246000fd5b9060005260206000200154905080876000018481548110612fa4577f4e487b7100000000000000000000000000000000000000000000000000000000600052603260045260246000fd5b90600052602060002001819055508387600101600083815260200190815260200160002081905550505b85600001805480613008577f4e487b7100000000000000000000000000000000000000000000000000000000600052603160045260246000fd5b600190038181906000526020600020016000905590558560010160008681526020019081526020016000206000905560019350505050613049565b60009150505b92915050565b600082600001828154811061308d577f4e487b7100000000000000000000000000000000000000000000000000000000600052603260045260246000fd5b9060005260206000200154905092915050565b6130aa8383612401565b6130b760008484846130fb565b6130f6576040517f08c379a00000000000000000000000000000000000000000000000000000000081526004016130ed9061471e565b60405180910390fd5b505050565b600061311c8473ffffffffffffffffffffffffffffffffffffffff16613692565b15613285578373ffffffffffffffffffffffffffffffffffffffff1663150b7a02613145611d62565b8786866040518563ffffffff1660e01b815260040161316794939291906145da565b602060405180830381600087803b15801561318157600080fd5b505af19250505080156131b257506040513d601f19601f820116820180604052508101906131af9190613f71565b60015b613235573d80600081146131e2576040519150601f19603f3d011682016040523d82523d6000602084013e6131e7565b606091505b5060008151141561322d576040517f08c379a00000000000000000000000000000000000000000000000000000000081526004016132249061471e565b60405180910390fd5b805181602001fd5b63150b7a0260e01b7bffffffffffffffffffffffffffffffffffffffffffffffffffffffff1916817bffffffffffffffffffffffffffffffffffffffffffffffffffffffff19161491505061328a565b600190505b949350505050565b600081600001805490509050919050565b600080836001016000848152602001908152602001600020541415905092915050565b60007f5a05180f000000000000000000000000000000000000000000000000000000007bffffffffffffffffffffffffffffffffffffffffffffffffffffffff1916827bffffffffffffffffffffffffffffffffffffffffffffffffffffffff191614806133395750613338826136a5565b5b9050919050565b61334b83838361371f565b613353610fd6565b15613393576040517f08c379a000000000000000000000000000000000000000000000000000000000815260040161338a9061469e565b60405180910390fd5b505050565b6060600060028360026133ab9190614bc2565b6133b59190614b3b565b67ffffffffffffffff8111156133f4577f4e487b7100000000000000000000000000000000000000000000000000000000600052604160045260246000fd5b6040519080825280601f01601f1916602001820160405280156134265781602001600182028036833780820191505090505b5090507f300000000000000000000000000000000000000000000000000000000000000081600081518110613484577f4e487b7100000000000000000000000000000000000000000000000000000000600052603260045260246000fd5b60200101907effffffffffffffffffffffffffffffffffffffffffffffffffffffffffffff1916908160001a9053507f78000000000000000000000000000000000000000000000000000000000000008160018151811061350e577f4e487b7100000000000000000000000000000000000000000000000000000000600052603260045260246000fd5b60200101907effffffffffffffffffffffffffffffffffffffffffffffffffffffffffffff1916908160001a9053506000600184600261354e9190614bc2565b6135589190614b3b565b90505b6001811115613644577f3031323334353637383961626364656600000000000000000000000000000000600f8616601081106135c0577f4e487b7100000000000000000000000000000000000000000000000000000000600052603260045260246000fd5b1a60f81b8282815181106135fd577f4e487b7100000000000000000000000000000000000000000000000000000000600052603260045260246000fd5b60200101907effffffffffffffffffffffffffffffffffffffffffffffffffffffffffffff1916908160001a905350600485901c94508061363d90614d10565b905061355b565b5060008414613688576040517f08c379a000000000000000000000000000000000000000000000000000000000815260040161367f9061467e565b60405180910390fd5b8091505092915050565b600080823b905060008111915050919050565b60007f7965db0b000000000000000000000000000000000000000000000000000000007bffffffffffffffffffffffffffffffffffffffffffffffffffffffff1916827bffffffffffffffffffffffffffffffffffffffffffffffffffffffff19161480613718575061371782613833565b5b9050919050565b61372a83838361389d565b600073ffffffffffffffffffffffffffffffffffffffff168373ffffffffffffffffffffffffffffffffffffffff16141561376d57613768816138a2565b6137ac565b8173ffffffffffffffffffffffffffffffffffffffff168373ffffffffffffffffffffffffffffffffffffffff16146137ab576137aa83826138eb565b5b5b600073ffffffffffffffffffffffffffffffffffffffff168273ffffffffffffffffffffffffffffffffffffffff1614156137ef576137ea81613a58565b61382e565b8273ffffffffffffffffffffffffffffffffffffffff168273ffffffffffffffffffffffffffffffffffffffff161461382d5761382c8282613b9b565b5b5b505050565b60007f01ffc9a7000000000000000000000000000000000000000000000000000000007bffffffffffffffffffffffffffffffffffffffffffffffffffffffff1916827bffffffffffffffffffffffffffffffffffffffffffffffffffffffff1916149050919050565b505050565b600a80549050600b600083815260200190815260200160002081905550600a81908060018154018082558091505060019003906000526020600020016000909190919091505550565b600060016138f88461112f565b6139029190614c1c565b90506000600960008481526020019081526020016000205490508181146139e7576000600860008673ffffffffffffffffffffffffffffffffffffffff1673ffffffffffffffffffffffffffffffffffffffff168152602001908152602001600020600084815260200190815260200160002054905080600860008773ffffffffffffffffffffffffffffffffffffffff1673ffffffffffffffffffffffffffffffffffffffff168152602001908152602001600020600084815260200190815260200160002081905550816009600083815260200190815260200160002081905550505b6009600084815260200190815260200160002060009055600860008573ffffffffffffffffffffffffffffffffffffffff1673ffffffffffffffffffffffffffffffffffffffff16815260200190815260200160002060008381526020019081526020016000206000905550505050565b60006001600a80549050613a6c9190614c1c565b90506000600b60008481526020019081526020016000205490506000600a8381548110613ac2577f4e487b7100000000000000000000000000000000000000000000000000000000600052603260045260246000fd5b9060005260206000200154905080600a8381548110613b0a577f4e487b7100000000000000000000000000000000000000000000000000000000600052603260045260246000fd5b906000526020600020018190555081600b600083815260200190815260200160002081905550600b600085815260200190815260200160002060009055600a805480613b7f577f4e487b7100000000000000000000000000000000000000000000000000000000600052603160045260246000fd5b6001900381819060005260206000200160009055905550505050565b6000613ba68361112f565b905081600860008573ffffffffffffffffffffffffffffffffffffffff1673ffffffffffffffffffffffffffffffffffffffff168152602001908152602001600020600083815260200190815260200160002081905550806009600084815260200190815260200160002081905550505050565b6000613c2d613c2884614ac7565b614aa2565b905082815260208101848484011115613c4557600080fd5b613c50848285614cce565b509392505050565b600081359050613c6781615725565b92915050565b600081359050613c7c8161573c565b92915050565b600081359050613c9181615753565b92915050565b600081359050613ca68161576a565b92915050565b600081519050613cbb8161576a565b92915050565b600082601f830112613cd257600080fd5b8135613ce2848260208601613c1a565b91505092915050565b600081359050613cfa81615781565b92915050565b600060208284031215613d1257600080fd5b6000613d2084828501613c58565b91505092915050565b60008060408385031215613d3c57600080fd5b6000613d4a85828601613c58565b9250506020613d5b85828601613c58565b9150509250929050565b600080600060608486031215613d7a57600080fd5b6000613d8886828701613c58565b9350506020613d9986828701613c58565b9250506040613daa86828701613ceb565b9150509250925092565b60008060008060808587031215613dca57600080fd5b6000613dd887828801613c58565b9450506020613de987828801613c58565b9350506040613dfa87828801613ceb565b925050606085013567ffffffffffffffff811115613e1757600080fd5b613e2387828801613cc1565b91505092959194509250565b60008060408385031215613e4257600080fd5b6000613e5085828601613c58565b9250506020613e6185828601613c6d565b9150509250929050565b60008060408385031215613e7e57600080fd5b6000613e8c85828601613c58565b9250506020613e9d85828601613ceb565b9150509250929050565b600060208284031215613eb957600080fd5b6000613ec784828501613c82565b91505092915050565b60008060408385031215613ee357600080fd5b6000613ef185828601613c82565b9250506020613f0285828601613c58565b9150509250929050565b60008060408385031215613f1f57600080fd5b6000613f2d85828601613c82565b9250506020613f3e85828601613ceb565b9150509250929050565b600060208284031215613f5a57600080fd5b6000613f6884828501613c97565b91505092915050565b600060208284031215613f8357600080fd5b6000613f9184828501613cac565b91505092915050565b600060208284031215613fac57600080fd5b6000613fba84828501613ceb565b91505092915050565b60008060408385031215613fd657600080fd5b6000613fe485828601613ceb565b9250506020613ff585828601613c58565b9150509250929050565b61400881614c50565b82525050565b61401781614c62565b82525050565b61402681614c6e565b82525050565b600061403782614af8565b6140418185614b0e565b9350614051818560208601614cdd565b61405a81614ed3565b840191505092915050565b600061407082614b03565b61407a8185614b1f565b935061408a818560208601614cdd565b61409381614ed3565b840191505092915050565b60006140a982614b03565b6140b38185614b30565b93506140c3818560208601614cdd565b80840191505092915050565b60006140dc602083614b1f565b91506140e782614ee4565b602082019050919050565b60006140ff602b83614b1f565b915061410a82614f0d565b604082019050919050565b6000614122601483614b1f565b915061412d82614f5c565b602082019050919050565b6000614145601383614b1f565b915061415082614f85565b602082019050919050565b6000614168602b83614b1f565b915061417382614fae565b604082019050919050565b600061418b603283614b1f565b915061419682614ffd565b604082019050919050565b60006141ae602683614b1f565b91506141b98261504c565b604082019050919050565b60006141d1601c83614b1f565b91506141dc8261509b565b602082019050919050565b60006141f4603e83614b1f565b91506141ff826150c4565b604082019050919050565b6000614217602483614b1f565b915061422282615113565b604082019050919050565b600061423a601983614b1f565b915061424582615162565b602082019050919050565b600061425d602c83614b1f565b91506142688261518b565b604082019050919050565b6000614280600883614b1f565b915061428b826151da565b602082019050919050565b60006142a3601083614b1f565b91506142ae82615203565b602082019050919050565b60006142c6603883614b1f565b91506142d18261522c565b604082019050919050565b60006142e9602a83614b1f565b91506142f48261527b565b604082019050919050565b600061430c602983614b1f565b9150614317826152ca565b604082019050919050565b600061432f601783614b1f565b915061433a82615319565b602082019050919050565b6000614352602083614b1f565b915061435d82615342565b602082019050919050565b6000614375602c83614b1f565b91506143808261536b565b604082019050919050565b6000614398602083614b1f565b91506143a3826153ba565b602082019050919050565b60006143bb602983614b1f565b91506143c6826153e3565b604082019050919050565b60006143de602f83614b1f565b91506143e982615432565b604082019050919050565b6000614401600983614b1f565b915061440c82615481565b602082019050919050565b6000614424602183614b1f565b915061442f826154aa565b604082019050919050565b6000614447603183614b1f565b9150614452826154f9565b604082019050919050565b600061446a602c83614b1f565b915061447582615548565b604082019050919050565b600061448d601783614b30565b915061449882615597565b601782019050919050565b60006144b0603d83614b1f565b91506144bb826155c0565b604082019050919050565b60006144d3603083614b1f565b91506144de8261560f565b604082019050919050565b60006144f6604083614b1f565b91506145018261565e565b604082019050919050565b6000614519601183614b30565b9150614524826156ad565b601182019050919050565b600061453c602f83614b1f565b9150614547826156d6565b604082019050919050565b61455b81614cc4565b82525050565b600061456d828561409e565b9150614579828461409e565b91508190509392505050565b600061459082614480565b915061459c828561409e565b91506145a78261450c565b91506145b3828461409e565b91508190509392505050565b60006020820190506145d46000830184613fff565b92915050565b60006080820190506145ef6000830187613fff565b6145fc6020830186613fff565b6146096040830185614552565b818103606083015261461b818461402c565b905095945050505050565b600060208201905061463b600083018461400e565b92915050565b6000602082019050614656600083018461401d565b92915050565b600060208201905081810360008301526146768184614065565b905092915050565b60006020820190508181036000830152614697816140cf565b9050919050565b600060208201905081810360008301526146b7816140f2565b9050919050565b600060208201905081810360008301526146d781614115565b9050919050565b600060208201905081810360008301526146f781614138565b9050919050565b600060208201905081810360008301526147178161415b565b9050919050565b600060208201905081810360008301526147378161417e565b9050919050565b60006020820190508181036000830152614757816141a1565b9050919050565b60006020820190508181036000830152614777816141c4565b9050919050565b60006020820190508181036000830152614797816141e7565b9050919050565b600060208201905081810360008301526147b78161420a565b9050919050565b600060208201905081810360008301526147d78161422d565b9050919050565b600060208201905081810360008301526147f781614250565b9050919050565b6000602082019050818103600083015261481781614273565b9050919050565b6000602082019050818103600083015261483781614296565b9050919050565b60006020820190508181036000830152614857816142b9565b9050919050565b60006020820190508181036000830152614877816142dc565b9050919050565b60006020820190508181036000830152614897816142ff565b9050919050565b600060208201905081810360008301526148b781614322565b9050919050565b600060208201905081810360008301526148d781614345565b9050919050565b600060208201905081810360008301526148f781614368565b9050919050565b600060208201905081810360008301526149178161438b565b9050919050565b60006020820190508181036000830152614937816143ae565b9050919050565b60006020820190508181036000830152614957816143d1565b9050919050565b60006020820190508181036000830152614977816143f4565b9050919050565b6000602082019050818103600083015261499781614417565b9050919050565b600060208201905081810360008301526149b78161443a565b9050919050565b600060208201905081810360008301526149d78161445d565b9050919050565b600060208201905081810360008301526149f7816144a3565b9050919050565b60006020820190508181036000830152614a17816144c6565b9050919050565b60006020820190508181036000830152614a37816144e9565b9050919050565b60006020820190508181036000830152614a578161452f565b9050919050565b6000602082019050614a736000830184614552565b92915050565b6000604082019050614a8e6000830185614552565b614a9b6020830184613fff565b9392505050565b6000614aac614abd565b9050614ab88282614d6c565b919050565b6000604051905090565b600067ffffffffffffffff821115614ae257614ae1614ea4565b5b614aeb82614ed3565b9050602081019050919050565b600081519050919050565b600081519050919050565b600082825260208201905092915050565b600082825260208201905092915050565b600081905092915050565b6000614b4682614cc4565b9150614b5183614cc4565b9250827fffffffffffffffffffffffffffffffffffffffffffffffffffffffffffffffff03821115614b8657614b85614e17565b5b828201905092915050565b6000614b9c82614cc4565b9150614ba783614cc4565b925082614bb757614bb6614e46565b5b828204905092915050565b6000614bcd82614cc4565b9150614bd883614cc4565b9250817fffffffffffffffffffffffffffffffffffffffffffffffffffffffffffffffff0483118215151615614c1157614c10614e17565b5b828202905092915050565b6000614c2782614cc4565b9150614c3283614cc4565b925082821015614c4557614c44614e17565b5b828203905092915050565b6000614c5b82614ca4565b9050919050565b60008115159050919050565b6000819050919050565b60007fffffffff0000000000000000000000000000000000000000000000000000000082169050919050565b600073ffffffffffffffffffffffffffffffffffffffff82169050919050565b6000819050919050565b82818337600083830152505050565b60005b83811015614cfb578082015181840152602081019050614ce0565b83811115614d0a576000848401525b50505050565b6000614d1b82614cc4565b91506000821415614d2f57614d2e614e17565b5b600182039050919050565b60006002820490506001821680614d5257607f821691505b60208210811415614d6657614d65614e75565b5b50919050565b614d7582614ed3565b810181811067ffffffffffffffff82111715614d9457614d93614ea4565b5b80604052505050565b6000614da882614cc4565b91507fffffffffffffffffffffffffffffffffffffffffffffffffffffffffffffffff821415614ddb57614dda614e17565b5b600182019050919050565b6000614df182614cc4565b9150614dfc83614cc4565b925082614e0c57614e0b614e46565b5b828206905092915050565b7f4e487b7100000000000000000000000000000000000000000000000000000000600052601160045260246000fd5b7f4e487b7100000000000000000000000000000000000000000000000000000000600052601260045260246000fd5b7f4e487b7100000000000000000000000000000000000000000000000000000000600052602260045260246000fd5b7f4e487b7100000000000000000000000000000000000000000000000000000000600052604160045260246000fd5b6000601f19601f8301169050919050565b7f537472696e67733a20686578206c656e67746820696e73756666696369656e74600082015250565b7f4552433732315061757361626c653a20746f6b656e207472616e73666572207760008201527f68696c6520706175736564000000000000000000000000000000000000000000602082015250565b7f5061757361626c653a206e6f7420706175736564000000000000000000000000600082015250565b7f73616c65206861736e2774207374617274656400000000000000000000000000600082015250565b7f455243373231456e756d657261626c653a206f776e657220696e646578206f7560008201527f74206f6620626f756e6473000000000000000000000000000000000000000000602082015250565b7f4552433732313a207472616e7366657220746f206e6f6e20455243373231526560008201527f63656976657220696d706c656d656e7465720000000000000000000000000000602082015250565b7f4f776e61626c653a206e6577206f776e657220697320746865207a65726f206160008201527f6464726573730000000000000000000000000000000000000000000000000000602082015250565b7f4552433732313a20746f6b656e20616c7265616479206d696e74656400000000600082015250565b7f4552433732315072657365744d696e7465725061757365724175746f49643a2060008201527f6d75737420686176652070617573657220726f6c6520746f2070617573650000602082015250565b7f4552433732313a207472616e7366657220746f20746865207a65726f2061646460008201527f7265737300000000000000000000000000000000000000000000000000000000602082015250565b7f4552433732313a20617070726f766520746f2063616c6c657200000000000000600082015250565b7f4552433732313a206f70657261746f7220717565727920666f72206e6f6e657860008201527f697374656e7420746f6b656e0000000000000000000000000000000000000000602082015250565b7f736f6c64206f7574000000000000000000000000000000000000000000000000600082015250565b7f5061757361626c653a2070617573656400000000000000000000000000000000600082015250565b7f4552433732313a20617070726f76652063616c6c6572206973206e6f74206f7760008201527f6e6572206e6f7220617070726f76656420666f7220616c6c0000000000000000602082015250565b7f4552433732313a2062616c616e636520717565727920666f7220746865207a6560008201527f726f206164647265737300000000000000000000000000000000000000000000602082015250565b7f4552433732313a206f776e657220717565727920666f72206e6f6e657869737460008201527f656e7420746f6b656e0000000000000000000000000000000000000000000000602082015250565b7f7175616e746974792063616e6e6f74206265207a65726f000000000000000000600082015250565b7f4552433732313a206d696e7420746f20746865207a65726f2061646472657373600082015250565b7f4552433732313a20617070726f76656420717565727920666f72206e6f6e657860008201527f697374656e7420746f6b656e0000000000000000000000000000000000000000602082015250565b7f4f776e61626c653a2063616c6c6572206973206e6f7420746865206f776e6572600082015250565b7f4552433732313a207472616e73666572206f6620746f6b656e2074686174206960008201527f73206e6f74206f776e0000000000000000000000000000000000000000000000602082015250565b7f4552433732314d657461646174613a2055524920717565727920666f72206e6f60008201527f6e6578697374656e7420746f6b656e0000000000000000000000000000000000602082015250565b7f6578636565647320330000000000000000000000000000000000000000000000600082015250565b7f4552433732313a20617070726f76616c20746f2063757272656e74206f776e6560008201527f7200000000000000000000000000000000000000000000000000000000000000602082015250565b7f4552433732313a207472616e736665722063616c6c6572206973206e6f74206f60008201527f776e6572206e6f7220617070726f766564000000000000000000000000000000602082015250565b7f455243373231456e756d657261626c653a20676c6f62616c20696e646578206f60008201527f7574206f6620626f756e64730000000000000000000000000000000000000000602082015250565b7f416363657373436f6e74726f6c3a206163636f756e7420000000000000000000600082015250565b7f4552433732315072657365744d696e7465725061757365724175746f49643a2060008201527f6d7573742068617665206d696e74657220726f6c6520746f206d696e74000000602082015250565b7f4552433732314275726e61626c653a2063616c6c6572206973206e6f74206f7760008201527f6e6572206e6f7220617070726f76656400000000000000000000000000000000602082015250565b7f4552433732315072657365744d696e7465725061757365724175746f49643a2060008201527f6d75737420686176652070617573657220726f6c6520746f20756e7061757365602082015250565b7f206973206d697373696e6720726f6c6520000000000000000000000000000000600082015250565b7f416363657373436f6e74726f6c3a2063616e206f6e6c792072656e6f756e636560008201527f20726f6c657320666f722073656c660000000000000000000000000000000000602082015250565b61572e81614c50565b811461573957600080fd5b50565b61574581614c62565b811461575057600080fd5b50565b61575c81614c6e565b811461576757600080fd5b50565b61577381614c78565b811461577e57600080fd5b50565b61578a81614cc4565b811461579557600080fd5b5056fea2646970667358221220f4f57fddf4a9d42aa77f53891eda40d435ea46d105df6169404c6dbaab65bd3b64736f6c6343000804003368747470733a2f2f6e66742e6578616d706c65732e776f726b6572732e6465762f6e66742f",
  "linkReferences": {},
  "deployedLinkReferences": {}
}